{
  "contractName": "test",
  "abi": [
    {
      "inputs": [],
      "stateMutability": "nonpayable",
      "type": "constructor"
    },
    {
      "inputs": [],
      "name": "ApprovalCallerNotOwnerNorApproved",
      "type": "error"
    },
    {
      "inputs": [],
      "name": "ApprovalQueryForNonexistentToken",
      "type": "error"
    },
    {
      "inputs": [],
      "name": "ApprovalToCurrentOwner",
      "type": "error"
    },
    {
      "inputs": [],
      "name": "ApproveToCaller",
      "type": "error"
    },
    {
      "inputs": [],
      "name": "BalanceQueryForZeroAddress",
      "type": "error"
    },
    {
      "inputs": [],
      "name": "MintToZeroAddress",
      "type": "error"
    },
    {
      "inputs": [],
      "name": "MintZeroQuantity",
      "type": "error"
    },
    {
      "inputs": [],
      "name": "OwnerQueryForNonexistentToken",
      "type": "error"
    },
    {
      "inputs": [],
      "name": "TransferCallerNotOwnerNorApproved",
      "type": "error"
    },
    {
      "inputs": [],
      "name": "TransferFromIncorrectOwner",
      "type": "error"
    },
    {
      "inputs": [],
      "name": "TransferToNonERC721ReceiverImplementer",
      "type": "error"
    },
    {
      "inputs": [],
      "name": "TransferToZeroAddress",
      "type": "error"
    },
    {
      "inputs": [],
      "name": "URIQueryForNonexistentToken",
      "type": "error"
    },
    {
      "anonymous": false,
      "inputs": [
        {
          "indexed": true,
          "internalType": "address",
          "name": "owner",
          "type": "address"
        },
        {
          "indexed": true,
          "internalType": "address",
          "name": "approved",
          "type": "address"
        },
        {
          "indexed": true,
          "internalType": "uint256",
          "name": "tokenId",
          "type": "uint256"
        }
      ],
      "name": "Approval",
      "type": "event"
    },
    {
      "anonymous": false,
      "inputs": [
        {
          "indexed": true,
          "internalType": "address",
          "name": "owner",
          "type": "address"
        },
        {
          "indexed": true,
          "internalType": "address",
          "name": "operator",
          "type": "address"
        },
        {
          "indexed": false,
          "internalType": "bool",
          "name": "approved",
          "type": "bool"
        }
      ],
      "name": "ApprovalForAll",
      "type": "event"
    },
    {
      "anonymous": false,
      "inputs": [
        {
          "indexed": true,
          "internalType": "address",
          "name": "previousOwner",
          "type": "address"
        },
        {
          "indexed": true,
          "internalType": "address",
          "name": "newOwner",
          "type": "address"
        }
      ],
      "name": "OwnershipTransferred",
      "type": "event"
    },
    {
      "anonymous": false,
      "inputs": [
        {
          "indexed": true,
          "internalType": "address",
          "name": "from",
          "type": "address"
        },
        {
          "indexed": true,
          "internalType": "address",
          "name": "to",
          "type": "address"
        },
        {
          "indexed": true,
          "internalType": "uint256",
          "name": "tokenId",
          "type": "uint256"
        }
      ],
      "name": "Transfer",
      "type": "event"
    },
    {
      "inputs": [
        {
          "internalType": "address",
          "name": "to",
          "type": "address"
        },
        {
          "internalType": "uint256",
          "name": "tokenId",
          "type": "uint256"
        }
      ],
      "name": "approve",
      "outputs": [],
      "stateMutability": "nonpayable",
      "type": "function"
    },
    {
      "inputs": [
        {
          "internalType": "address",
          "name": "owner",
          "type": "address"
        }
      ],
      "name": "balanceOf",
      "outputs": [
        {
          "internalType": "uint256",
          "name": "",
          "type": "uint256"
        }
      ],
      "stateMutability": "view",
      "type": "function",
      "constant": true
    },
    {
      "inputs": [
        {
          "internalType": "uint256",
          "name": "tokenId",
          "type": "uint256"
        }
      ],
      "name": "getApproved",
      "outputs": [
        {
          "internalType": "address",
          "name": "",
          "type": "address"
        }
      ],
      "stateMutability": "view",
      "type": "function",
      "constant": true
    },
    {
      "inputs": [
        {
          "internalType": "address",
          "name": "owner",
          "type": "address"
        },
        {
          "internalType": "address",
          "name": "operator",
          "type": "address"
        }
      ],
      "name": "isApprovedForAll",
      "outputs": [
        {
          "internalType": "bool",
          "name": "",
          "type": "bool"
        }
      ],
      "stateMutability": "view",
      "type": "function",
      "constant": true
    },
    {
      "inputs": [],
      "name": "mintRate",
      "outputs": [
        {
          "internalType": "uint256",
          "name": "",
          "type": "uint256"
        }
      ],
      "stateMutability": "view",
      "type": "function",
      "constant": true
    },
    {
      "inputs": [],
      "name": "name",
      "outputs": [
        {
          "internalType": "string",
          "name": "",
          "type": "string"
        }
      ],
      "stateMutability": "view",
      "type": "function",
      "constant": true
    },
    {
      "inputs": [],
      "name": "owner",
      "outputs": [
        {
          "internalType": "address",
          "name": "",
          "type": "address"
        }
      ],
      "stateMutability": "view",
      "type": "function",
      "constant": true
    },
    {
      "inputs": [
        {
          "internalType": "uint256",
          "name": "tokenId",
          "type": "uint256"
        }
      ],
      "name": "ownerOf",
      "outputs": [
        {
          "internalType": "address",
          "name": "",
          "type": "address"
        }
      ],
      "stateMutability": "view",
      "type": "function",
      "constant": true
    },
    {
      "inputs": [],
      "name": "renounceOwnership",
      "outputs": [],
      "stateMutability": "nonpayable",
      "type": "function"
    },
    {
      "inputs": [
        {
          "internalType": "address",
          "name": "from",
          "type": "address"
        },
        {
          "internalType": "address",
          "name": "to",
          "type": "address"
        },
        {
          "internalType": "uint256",
          "name": "tokenId",
          "type": "uint256"
        }
      ],
      "name": "safeTransferFrom",
      "outputs": [],
      "stateMutability": "nonpayable",
      "type": "function"
    },
    {
      "inputs": [
        {
          "internalType": "address",
          "name": "from",
          "type": "address"
        },
        {
          "internalType": "address",
          "name": "to",
          "type": "address"
        },
        {
          "internalType": "uint256",
          "name": "tokenId",
          "type": "uint256"
        },
        {
          "internalType": "bytes",
          "name": "_data",
          "type": "bytes"
        }
      ],
      "name": "safeTransferFrom",
      "outputs": [],
      "stateMutability": "nonpayable",
      "type": "function"
    },
    {
      "inputs": [
        {
          "internalType": "address",
          "name": "operator",
          "type": "address"
        },
        {
          "internalType": "bool",
          "name": "approved",
          "type": "bool"
        }
      ],
      "name": "setApprovalForAll",
      "outputs": [],
      "stateMutability": "nonpayable",
      "type": "function"
    },
    {
      "inputs": [
        {
          "internalType": "bytes4",
          "name": "interfaceId",
          "type": "bytes4"
        }
      ],
      "name": "supportsInterface",
      "outputs": [
        {
          "internalType": "bool",
          "name": "",
          "type": "bool"
        }
      ],
      "stateMutability": "view",
      "type": "function",
      "constant": true
    },
    {
      "inputs": [],
      "name": "symbol",
      "outputs": [
        {
          "internalType": "string",
          "name": "",
          "type": "string"
        }
      ],
      "stateMutability": "view",
      "type": "function",
      "constant": true
    },
    {
      "inputs": [],
      "name": "totalSupply",
      "outputs": [
        {
          "internalType": "uint256",
          "name": "",
          "type": "uint256"
        }
      ],
      "stateMutability": "view",
      "type": "function",
      "constant": true
    },
    {
      "inputs": [
        {
          "internalType": "address",
          "name": "from",
          "type": "address"
        },
        {
          "internalType": "address",
          "name": "to",
          "type": "address"
        },
        {
          "internalType": "uint256",
          "name": "tokenId",
          "type": "uint256"
        }
      ],
      "name": "transferFrom",
      "outputs": [],
      "stateMutability": "nonpayable",
      "type": "function"
    },
    {
      "inputs": [
        {
          "internalType": "address",
          "name": "newOwner",
          "type": "address"
        }
      ],
      "name": "transferOwnership",
      "outputs": [],
      "stateMutability": "nonpayable",
      "type": "function"
    },
    {
      "inputs": [
        {
          "internalType": "uint256",
          "name": "quantity",
          "type": "uint256"
        }
      ],
      "name": "mint",
      "outputs": [],
      "stateMutability": "payable",
      "type": "function",
      "payable": true
    },
    {
      "inputs": [
        {
          "internalType": "uint256",
          "name": "tokenId",
          "type": "uint256"
        }
      ],
      "name": "tokenURI",
      "outputs": [
        {
          "internalType": "string",
          "name": "",
          "type": "string"
        }
      ],
      "stateMutability": "view",
      "type": "function",
      "constant": true
    },
    {
      "inputs": [],
      "name": "withdraw",
      "outputs": [],
      "stateMutability": "payable",
      "type": "function",
      "payable": true
    },
    {
      "inputs": [
        {
          "internalType": "bool",
          "name": "toReveal",
          "type": "bool"
        }
      ],
      "name": "reveal",
      "outputs": [],
      "stateMutability": "nonpayable",
      "type": "function"
    },
    {
      "inputs": [
        {
          "internalType": "uint256",
          "name": "num",
          "type": "uint256"
        }
      ],
      "name": "devMint",
      "outputs": [],
      "stateMutability": "nonpayable",
      "type": "function"
    },
    {
      "inputs": [
        {
          "internalType": "uint256",
          "name": "newPrice",
          "type": "uint256"
        }
      ],
      "name": "setPrice",
      "outputs": [],
      "stateMutability": "nonpayable",
      "type": "function"
    },
    {
      "inputs": [
        {
          "internalType": "uint256",
          "name": "newMax",
          "type": "uint256"
        }
      ],
      "name": "setMaxMints",
      "outputs": [],
      "stateMutability": "nonpayable",
      "type": "function"
    },
    {
      "inputs": [
        {
          "internalType": "address",
          "name": "newTreasurer",
          "type": "address"
        }
      ],
      "name": "setTreasurer",
      "outputs": [],
      "stateMutability": "nonpayable",
      "type": "function"
    },
    {
      "inputs": [],
      "name": "getMaxMints",
      "outputs": [
        {
          "internalType": "uint256",
          "name": "",
          "type": "uint256"
        }
      ],
      "stateMutability": "view",
      "type": "function",
      "constant": true
    },
    {
      "inputs": [],
      "name": "getPrice",
      "outputs": [
        {
          "internalType": "uint256",
          "name": "",
          "type": "uint256"
        }
      ],
      "stateMutability": "view",
      "type": "function",
      "constant": true
    },
    {
      "inputs": [],
      "name": "mintsLeft",
      "outputs": [
        {
          "internalType": "int256",
          "name": "",
          "type": "int256"
        }
      ],
      "stateMutability": "view",
      "type": "function",
      "constant": true
    },
    {
      "inputs": [],
      "name": "supplyHasFinished",
      "outputs": [
        {
          "internalType": "bool",
          "name": "",
          "type": "bool"
        }
      ],
      "stateMutability": "view",
      "type": "function",
      "constant": true
    },
    {
      "inputs": [
        {
          "internalType": "uint256",
          "name": "newNum",
          "type": "uint256"
        }
      ],
      "name": "setTriggerNumber",
      "outputs": [],
      "stateMutability": "nonpayable",
      "type": "function"
    }
  ],
  "bytecode": "0x60806040526001600955611388600a556103e8600b556000600c60006101000a81548160ff0219169083151502179055506000600d556040518060600160405280603681526020016200353b60369139600e90805190602001906200006692919062000271565b506040518060600160405280603681526020016200350560369139600f90805190602001906200009892919062000271565b506000601060006101000a81548160ff021916908315150217905550348015620000c157600080fd5b506040518060400160405280600881526020017f4e696e6a61636b350000000000000000000000000000000000000000000000008152506040518060400160405280600281526020017f4e3500000000000000000000000000000000000000000000000000000000000081525081600290805190602001906200014692919062000271565b5080600390805190602001906200015f92919062000271565b50620001706200019e60201b60201c565b6000819055505050620001986200018c620001a360201b60201c565b620001ab60201b60201c565b62000385565b600090565b600033905090565b6000600860009054906101000a900473ffffffffffffffffffffffffffffffffffffffff16905081600860006101000a81548173ffffffffffffffffffffffffffffffffffffffff021916908373ffffffffffffffffffffffffffffffffffffffff1602179055508173ffffffffffffffffffffffffffffffffffffffff168173ffffffffffffffffffffffffffffffffffffffff167f8be0079c531659141344cd1fd0a4f28419497f9722a3daafe3b4186f6b6457e060405160405180910390a35050565b8280546200027f9062000350565b90600052602060002090601f016020900481019282620002a35760008555620002ef565b82601f10620002be57805160ff1916838001178555620002ef565b82800160010185558215620002ef579182015b82811115620002ee578251825591602001919060010190620002d1565b5b509050620002fe919062000302565b5090565b5b808211156200031d57600081600090555060010162000303565b5090565b7f4e487b7100000000000000000000000000000000000000000000000000000000600052602260045260246000fd5b600060028204905060018216806200036957607f821691505b6020821081036200037f576200037e62000321565b5b50919050565b61317080620003956000396000f3fe6080604052600436106101cd5760003560e01c8063715018a6116100f75780639d5561e111610095578063c87b56dd11610064578063c87b56dd1461061e578063ca0dcf161461065b578063e985e9c514610686578063f2fde38b146106c3576101cd565b80639d5561e114610585578063a0712d68146105b0578063a22cb465146105cc578063b88d4fde146105f5576101cd565b806391b7f5ed116100d157806391b7f5ed146104dd578063940cd05b1461050657806395d89b411461052f57806398d5fdca1461055a576101cd565b8063715018a61461047257806379c9cb7b146104895780638da5cb5b146104b2576101cd565b806331b8e45a1161016f5780635bdf01c81161013e5780635bdf01c8146103a45780636352211e146103cf578063671d64291461040c57806370a0823114610435576101cd565b806331b8e45a1461031f578063375a069a146103485780633ccfd60b1461037157806342842e0e1461037b576101cd565b8063095ea7b3116101ab578063095ea7b31461027757806312853cfc146102a057806318160ddd146102cb57806323b872dd146102f6576101cd565b806301ffc9a7146101d257806306fdde031461020f578063081812fc1461023a575b600080fd5b3480156101de57600080fd5b506101f960048036038101906101f491906123c8565b6106ec565b6040516102069190612410565b60405180910390f35b34801561021b57600080fd5b5061022461077e565b60405161023191906124c4565b60405180910390f35b34801561024657600080fd5b50610261600480360381019061025c919061251c565b610810565b60405161026e919061258a565b60405180910390f35b34801561028357600080fd5b5061029e600480360381019061029991906125d1565b61088c565b005b3480156102ac57600080fd5b506102b5610a32565b6040516102c29190612410565b60405180910390f35b3480156102d757600080fd5b506102e0610a55565b6040516102ed9190612620565b60405180910390f35b34801561030257600080fd5b5061031d6004803603810190610318919061263b565b610a6c565b005b34801561032b57600080fd5b506103466004803603810190610341919061251c565b610a7c565b005b34801561035457600080fd5b5061036f600480360381019061036a919061251c565b610b02565b005b610379610bea565b005b34801561038757600080fd5b506103a2600480360381019061039d919061263b565b610cca565b005b3480156103b057600080fd5b506103b9610cea565b6040516103c69190612620565b60405180910390f35b3480156103db57600080fd5b506103f660048036038101906103f1919061251c565b610cf4565b604051610403919061258a565b60405180910390f35b34801561041857600080fd5b50610433600480360381019061042e919061268e565b610d06565b005b34801561044157600080fd5b5061045c6004803603810190610457919061268e565b610dc6565b6040516104699190612620565b60405180910390f35b34801561047e57600080fd5b50610487610e7e565b005b34801561049557600080fd5b506104b060048036038101906104ab919061251c565b610f06565b005b3480156104be57600080fd5b506104c7610f8c565b6040516104d4919061258a565b60405180910390f35b3480156104e957600080fd5b5061050460048036038101906104ff919061251c565b610fb6565b005b34801561051257600080fd5b5061052d600480360381019061052891906126e7565b61103c565b005b34801561053b57600080fd5b506105446110d5565b60405161055191906124c4565b60405180910390f35b34801561056657600080fd5b5061056f611167565b60405161057c9190612620565b60405180910390f35b34801561059157600080fd5b5061059a611171565b6040516105a7919061272d565b60405180910390f35b6105ca60048036038101906105c5919061251c565b611199565b005b3480156105d857600080fd5b506105f360048036038101906105ee9190612748565b6112ad565b005b34801561060157600080fd5b5061061c600480360381019061061791906128bd565b611424565b005b34801561062a57600080fd5b506106456004803603810190610640919061251c565b611497565b60405161065291906124c4565b60405180910390f35b34801561066757600080fd5b506106706115c7565b60405161067d9190612620565b60405180910390f35b34801561069257600080fd5b506106ad60048036038101906106a89190612940565b6115cd565b6040516106ba9190612410565b60405180910390f35b3480156106cf57600080fd5b506106ea60048036038101906106e5919061268e565b611661565b005b60006301ffc9a760e01b827bffffffffffffffffffffffffffffffffffffffffffffffffffffffff1916148061074757506380ac58cd60e01b827bffffffffffffffffffffffffffffffffffffffffffffffffffffffff1916145b806107775750635b5e139f60e01b827bffffffffffffffffffffffffffffffffffffffffffffffffffffffff1916145b9050919050565b60606002805461078d906129af565b80601f01602080910402602001604051908101604052809291908181526020018280546107b9906129af565b80156108065780601f106107db57610100808354040283529160200191610806565b820191906000526020600020905b8154815290600101906020018083116107e957829003601f168201915b5050505050905090565b600061081b82611758565b610851576040517fcf4700e400000000000000000000000000000000000000000000000000000000815260040160405180910390fd5b6006600083815260200190815260200160002060009054906101000a900473ffffffffffffffffffffffffffffffffffffffff169050919050565b6000610897826117b7565b90508073ffffffffffffffffffffffffffffffffffffffff168373ffffffffffffffffffffffffffffffffffffffff16036108fe576040517f943f7b8c00000000000000000000000000000000000000000000000000000000815260040160405180910390fd5b8073ffffffffffffffffffffffffffffffffffffffff1661091d611883565b73ffffffffffffffffffffffffffffffffffffffff16146109805761094981610944611883565b6115cd565b61097f576040517fcfb3b94200000000000000000000000000000000000000000000000000000000815260040160405180910390fd5b5b826006600084815260200190815260200160002060006101000a81548173ffffffffffffffffffffffffffffffffffffffff021916908373ffffffffffffffffffffffffffffffffffffffff160217905550818373ffffffffffffffffffffffffffffffffffffffff168273ffffffffffffffffffffffffffffffffffffffff167f8c5be1e5ebec7d5bd14f71427d1e84f3dd0314c0f7b2291e5b200ac8c7c3b92560405160405180910390a4505050565b6000600a54610a3f610a55565b10610a4d5760019050610a52565b600090505b90565b6000610a5f61188b565b6001546000540303905090565b610a77838383611890565b505050565b610a84611c37565b73ffffffffffffffffffffffffffffffffffffffff16610aa2610f8c565b73ffffffffffffffffffffffffffffffffffffffff1614610af8576040517f08c379a0000000000000000000000000000000000000000000000000000000008152600401610aef90612a2c565b60405180910390fd5b80600b8190555050565b610b0a611c37565b73ffffffffffffffffffffffffffffffffffffffff16610b28610f8c565b73ffffffffffffffffffffffffffffffffffffffff1614610b7e576040517f08c379a0000000000000000000000000000000000000000000000000000000008152600401610b7590612a2c565b60405180910390fd5b600a5481610b8a610a55565b610b949190612a7b565b1115610bd5576040517f08c379a0000000000000000000000000000000000000000000000000000000008152600401610bcc90612b1d565b60405180910390fd5b610bdf3382611c3f565b610be7611c5d565b50565b601060019054906101000a900473ffffffffffffffffffffffffffffffffffffffff1673ffffffffffffffffffffffffffffffffffffffff163373ffffffffffffffffffffffffffffffffffffffff161480610c785750610c49610f8c565b73ffffffffffffffffffffffffffffffffffffffff163373ffffffffffffffffffffffffffffffffffffffff16145b610c8157600080fd5b3373ffffffffffffffffffffffffffffffffffffffff166108fc479081150290604051600060405180830381858888f19350505050158015610cc7573d6000803e3d6000fd5b50565b610ce583838360405180602001604052806000815250611424565b505050565b6000600954905090565b6000610cff826117b7565b9050919050565b610d0e611c37565b73ffffffffffffffffffffffffffffffffffffffff16610d2c610f8c565b73ffffffffffffffffffffffffffffffffffffffff1614610d82576040517f08c379a0000000000000000000000000000000000000000000000000000000008152600401610d7990612a2c565b60405180910390fd5b80601060016101000a81548173ffffffffffffffffffffffffffffffffffffffff021916908373ffffffffffffffffffffffffffffffffffffffff16021790555050565b60008073ffffffffffffffffffffffffffffffffffffffff168273ffffffffffffffffffffffffffffffffffffffff1603610e2d576040517f8f4eb60400000000000000000000000000000000000000000000000000000000815260040160405180910390fd5b67ffffffffffffffff600560008473ffffffffffffffffffffffffffffffffffffffff1673ffffffffffffffffffffffffffffffffffffffff16815260200190815260200160002054169050919050565b610e86611c37565b73ffffffffffffffffffffffffffffffffffffffff16610ea4610f8c565b73ffffffffffffffffffffffffffffffffffffffff1614610efa576040517f08c379a0000000000000000000000000000000000000000000000000000000008152600401610ef190612a2c565b60405180910390fd5b610f046000611cbc565b565b610f0e611c37565b73ffffffffffffffffffffffffffffffffffffffff16610f2c610f8c565b73ffffffffffffffffffffffffffffffffffffffff1614610f82576040517f08c379a0000000000000000000000000000000000000000000000000000000008152600401610f7990612a2c565b60405180910390fd5b8060098190555050565b6000600860009054906101000a900473ffffffffffffffffffffffffffffffffffffffff16905090565b610fbe611c37565b73ffffffffffffffffffffffffffffffffffffffff16610fdc610f8c565b73ffffffffffffffffffffffffffffffffffffffff1614611032576040517f08c379a000000000000000000000000000000000000000000000000000000000815260040161102990612a2c565b60405180910390fd5b80600d8190555050565b611044611c37565b73ffffffffffffffffffffffffffffffffffffffff16611062610f8c565b73ffffffffffffffffffffffffffffffffffffffff16146110b8576040517f08c379a00000000000000000000000000000000000000000000000000000000081526004016110af90612a2c565b60405180910390fd5b80601060006101000a81548160ff02191690831515021790555050565b6060600380546110e4906129af565b80601f0160208091040260200160405190810160405280929190818152602001828054611110906129af565b801561115d5780601f106111325761010080835404028352916020019161115d565b820191906000526020600020905b81548152906001019060200180831161114057829003601f168201915b5050505050905090565b6000600d54905090565b6000806009549050600061118433610dc6565b905080826111929190612b3d565b9250505090565b6009546111a533611d82565b826111b09190612a7b565b11156111f1576040517f08c379a00000000000000000000000000000000000000000000000000000000081526004016111e890612c1d565b60405180910390fd5b600a54816111fd610a55565b6112079190612a7b565b1115611248576040517f08c379a000000000000000000000000000000000000000000000000000000000815260040161123f90612b1d565b60405180910390fd5b80600d546112569190612c3d565b341015611298576040517f08c379a000000000000000000000000000000000000000000000000000000000815260040161128f90612ce3565b60405180910390fd5b6112a23382611c3f565b6112aa611c5d565b50565b6112b5611883565b73ffffffffffffffffffffffffffffffffffffffff168273ffffffffffffffffffffffffffffffffffffffff1603611319576040517fb06307db00000000000000000000000000000000000000000000000000000000815260040160405180910390fd5b8060076000611326611883565b73ffffffffffffffffffffffffffffffffffffffff1673ffffffffffffffffffffffffffffffffffffffff16815260200190815260200160002060008473ffffffffffffffffffffffffffffffffffffffff1673ffffffffffffffffffffffffffffffffffffffff16815260200190815260200160002060006101000a81548160ff0219169083151502179055508173ffffffffffffffffffffffffffffffffffffffff166113d3611883565b73ffffffffffffffffffffffffffffffffffffffff167f17307eab39ab6107e8899845ad3d59bd9653f200f220920489ca2b5937696c31836040516114189190612410565b60405180910390a35050565b61142f848484611890565b60008373ffffffffffffffffffffffffffffffffffffffff163b146114915761145a84848484611dd9565b611490576040517fd1a57ed600000000000000000000000000000000000000000000000000000000815260040160405180910390fd5b5b50505050565b60606114a282611758565b6114e1576040517f08c379a00000000000000000000000000000000000000000000000000000000081526004016114d890612d75565b60405180910390fd5b601060009054906101000a900460ff161561153457600061150183611f29565b90506000600e82604051602001611519929190612e65565b604051602081830303815290604052905080925050506115c2565b600f8054611541906129af565b80601f016020809104026020016040519081016040528092919081815260200182805461156d906129af565b80156115ba5780601f1061158f576101008083540402835291602001916115ba565b820191906000526020600020905b81548152906001019060200180831161159d57829003601f168201915b505050505090505b919050565b600d5481565b6000600760008473ffffffffffffffffffffffffffffffffffffffff1673ffffffffffffffffffffffffffffffffffffffff16815260200190815260200160002060008373ffffffffffffffffffffffffffffffffffffffff1673ffffffffffffffffffffffffffffffffffffffff16815260200190815260200160002060009054906101000a900460ff16905092915050565b611669611c37565b73ffffffffffffffffffffffffffffffffffffffff16611687610f8c565b73ffffffffffffffffffffffffffffffffffffffff16146116dd576040517f08c379a00000000000000000000000000000000000000000000000000000000081526004016116d490612a2c565b60405180910390fd5b600073ffffffffffffffffffffffffffffffffffffffff168173ffffffffffffffffffffffffffffffffffffffff160361174c576040517f08c379a000000000000000000000000000000000000000000000000000000000815260040161174390612efb565b60405180910390fd5b61175581611cbc565b50565b60008161176361188b565b11158015611772575060005482105b80156117b0575060007c0100000000000000000000000000000000000000000000000000000000600460008581526020019081526020016000205416145b9050919050565b600080829050806117c661188b565b1161184c5760005481101561184b5760006004600083815260200190815260200160002054905060007c0100000000000000000000000000000000000000000000000000000000821603611849575b6000810361183f576004600083600190039350838152602001908152602001600020549050611815565b809250505061187e565b505b5b6040517fdf2d9b4200000000000000000000000000000000000000000000000000000000815260040160405180910390fd5b919050565b600033905090565b600090565b600061189b826117b7565b90508373ffffffffffffffffffffffffffffffffffffffff168173ffffffffffffffffffffffffffffffffffffffff1614611902576040517fa114810000000000000000000000000000000000000000000000000000000000815260040160405180910390fd5b60008473ffffffffffffffffffffffffffffffffffffffff16611923611883565b73ffffffffffffffffffffffffffffffffffffffff16148061195257506119518561194c611883565b6115cd565b5b806119975750611960611883565b73ffffffffffffffffffffffffffffffffffffffff1661197f84610810565b73ffffffffffffffffffffffffffffffffffffffff16145b9050806119d0576040517f59c896be00000000000000000000000000000000000000000000000000000000815260040160405180910390fd5b600073ffffffffffffffffffffffffffffffffffffffff168473ffffffffffffffffffffffffffffffffffffffff1603611a36576040517fea553b3400000000000000000000000000000000000000000000000000000000815260040160405180910390fd5b611a438585856001612089565b6006600084815260200190815260200160002060006101000a81549073ffffffffffffffffffffffffffffffffffffffff0219169055600560008673ffffffffffffffffffffffffffffffffffffffff1673ffffffffffffffffffffffffffffffffffffffff168152602001908152602001600020600081546001900391905081905550600560008573ffffffffffffffffffffffffffffffffffffffff1673ffffffffffffffffffffffffffffffffffffffff16815260200190815260200160002060008154600101919050819055507c020000000000000000000000000000000000000000000000000000000060a042901b611b408661208f565b1717600460008581526020019081526020016000208190555060007c0200000000000000000000000000000000000000000000000000000000831603611bc85760006001840190506000600460008381526020019081526020016000205403611bc6576000548114611bc5578260046000838152602001908152602001600020819055505b5b505b828473ffffffffffffffffffffffffffffffffffffffff168673ffffffffffffffffffffffffffffffffffffffff167fddf252ad1be2c89b69c2b068fc378daa952ba7f163c4a11628f55a4df523b3ef60405160405180910390a4611c308585856001612099565b5050505050565b600033905090565b611c5982826040518060200160405280600081525061209f565b5050565b600b54611c68610a55565b10158015611c835750600c60009054906101000a900460ff16155b15611cba576001600c60006101000a81548160ff0219169083151502179055506611c37937e08000600d81905550600a6009819055505b565b6000600860009054906101000a900473ffffffffffffffffffffffffffffffffffffffff16905081600860006101000a81548173ffffffffffffffffffffffffffffffffffffffff021916908373ffffffffffffffffffffffffffffffffffffffff1602179055508173ffffffffffffffffffffffffffffffffffffffff168173ffffffffffffffffffffffffffffffffffffffff167f8be0079c531659141344cd1fd0a4f28419497f9722a3daafe3b4186f6b6457e060405160405180910390a35050565b600067ffffffffffffffff6040600560008573ffffffffffffffffffffffffffffffffffffffff1673ffffffffffffffffffffffffffffffffffffffff16815260200190815260200160002054901c169050919050565b60008373ffffffffffffffffffffffffffffffffffffffff1663150b7a02611dff611883565b8786866040518563ffffffff1660e01b8152600401611e219493929190612f70565b6020604051808303816000875af1925050508015611e5d57506040513d601f19601f82011682018060405250810190611e5a9190612fd1565b60015b611ed6573d8060008114611e8d576040519150601f19603f3d011682016040523d82523d6000602084013e611e92565b606091505b506000815103611ece576040517fd1a57ed600000000000000000000000000000000000000000000000000000000815260040160405180910390fd5b805181602001fd5b63150b7a0260e01b7bffffffffffffffffffffffffffffffffffffffffffffffffffffffff1916817bffffffffffffffffffffffffffffffffffffffffffffffffffffffff191614915050949350505050565b606060008203611f70576040518060400160405280600181526020017f30000000000000000000000000000000000000000000000000000000000000008152509050612084565b600082905060005b60008214611fa2578080611f8b90612ffe565b915050600a82611f9b9190613075565b9150611f78565b60008167ffffffffffffffff811115611fbe57611fbd612792565b5b6040519080825280601f01601f191660200182016040528015611ff05781602001600182028036833780820191505090505b5090505b6000851461207d5760018261200991906130a6565b9150600a8561201891906130da565b60306120249190612a7b565b60f81b81838151811061203a5761203961310b565b5b60200101907effffffffffffffffffffffffffffffffffffffffffffffffffffffffffffff1916908160001a905350600a856120769190613075565b9450611ff4565b8093505050505b919050565b50505050565b6000819050919050565b50505050565b600080549050600073ffffffffffffffffffffffffffffffffffffffff168473ffffffffffffffffffffffffffffffffffffffff160361210b576040517f2e07630000000000000000000000000000000000000000000000000000000000815260040160405180910390fd5b60008303612145576040517fb562e8dd00000000000000000000000000000000000000000000000000000000815260040160405180910390fd5b6121526000858386612089565b600160406001901b178302600560008673ffffffffffffffffffffffffffffffffffffffff1673ffffffffffffffffffffffffffffffffffffffff1681526020019081526020016000206000828254019250508190555060e16121b760018514612352565b901b60a042901b6121c78661208f565b1717600460008381526020019081526020016000208190555060008190506000848201905060008673ffffffffffffffffffffffffffffffffffffffff163b146122cb575b818673ffffffffffffffffffffffffffffffffffffffff16600073ffffffffffffffffffffffffffffffffffffffff167fddf252ad1be2c89b69c2b068fc378daa952ba7f163c4a11628f55a4df523b3ef60405160405180910390a461227b6000878480600101955087611dd9565b6122b1576040517fd1a57ed600000000000000000000000000000000000000000000000000000000815260040160405180910390fd5b80821061220c5782600054146122c657600080fd5b612336565b5b818060010192508673ffffffffffffffffffffffffffffffffffffffff16600073ffffffffffffffffffffffffffffffffffffffff167fddf252ad1be2c89b69c2b068fc378daa952ba7f163c4a11628f55a4df523b3ef60405160405180910390a48082106122cc575b81600081905550505061234c6000858386612099565b50505050565b6000819050919050565b6000604051905090565b600080fd5b600080fd5b60007fffffffff0000000000000000000000000000000000000000000000000000000082169050919050565b6123a581612370565b81146123b057600080fd5b50565b6000813590506123c28161239c565b92915050565b6000602082840312156123de576123dd612366565b5b60006123ec848285016123b3565b91505092915050565b60008115159050919050565b61240a816123f5565b82525050565b60006020820190506124256000830184612401565b92915050565b600081519050919050565b600082825260208201905092915050565b60005b8381101561246557808201518184015260208101905061244a565b83811115612474576000848401525b50505050565b6000601f19601f8301169050919050565b60006124968261242b565b6124a08185612436565b93506124b0818560208601612447565b6124b98161247a565b840191505092915050565b600060208201905081810360008301526124de818461248b565b905092915050565b6000819050919050565b6124f9816124e6565b811461250457600080fd5b50565b600081359050612516816124f0565b92915050565b60006020828403121561253257612531612366565b5b600061254084828501612507565b91505092915050565b600073ffffffffffffffffffffffffffffffffffffffff82169050919050565b600061257482612549565b9050919050565b61258481612569565b82525050565b600060208201905061259f600083018461257b565b92915050565b6125ae81612569565b81146125b957600080fd5b50565b6000813590506125cb816125a5565b92915050565b600080604083850312156125e8576125e7612366565b5b60006125f6858286016125bc565b925050602061260785828601612507565b9150509250929050565b61261a816124e6565b82525050565b60006020820190506126356000830184612611565b92915050565b60008060006060848603121561265457612653612366565b5b6000612662868287016125bc565b9350506020612673868287016125bc565b925050604061268486828701612507565b9150509250925092565b6000602082840312156126a4576126a3612366565b5b60006126b2848285016125bc565b91505092915050565b6126c4816123f5565b81146126cf57600080fd5b50565b6000813590506126e1816126bb565b92915050565b6000602082840312156126fd576126fc612366565b5b600061270b848285016126d2565b91505092915050565b6000819050919050565b61272781612714565b82525050565b6000602082019050612742600083018461271e565b92915050565b6000806040838503121561275f5761275e612366565b5b600061276d858286016125bc565b925050602061277e858286016126d2565b9150509250929050565b600080fd5b600080fd5b7f4e487b7100000000000000000000000000000000000000000000000000000000600052604160045260246000fd5b6127ca8261247a565b810181811067ffffffffffffffff821117156127e9576127e8612792565b5b80604052505050565b60006127fc61235c565b905061280882826127c1565b919050565b600067ffffffffffffffff82111561282857612827612792565b5b6128318261247a565b9050602081019050919050565b82818337600083830152505050565b600061286061285b8461280d565b6127f2565b90508281526020810184848401111561287c5761287b61278d565b5b61288784828561283e565b509392505050565b600082601f8301126128a4576128a3612788565b5b81356128b484826020860161284d565b91505092915050565b600080600080608085870312156128d7576128d6612366565b5b60006128e5878288016125bc565b94505060206128f6878288016125bc565b935050604061290787828801612507565b925050606085013567ffffffffffffffff8111156129285761292761236b565b5b6129348782880161288f565b91505092959194509250565b6000806040838503121561295757612956612366565b5b6000612965858286016125bc565b9250506020612976858286016125bc565b9150509250929050565b7f4e487b7100000000000000000000000000000000000000000000000000000000600052602260045260246000fd5b600060028204905060018216806129c757607f821691505b6020821081036129da576129d9612980565b5b50919050565b7f4f776e61626c653a2063616c6c6572206973206e6f7420746865206f776e6572600082015250565b6000612a16602083612436565b9150612a21826129e0565b602082019050919050565b60006020820190508181036000830152612a4581612a09565b9050919050565b7f4e487b7100000000000000000000000000000000000000000000000000000000600052601160045260246000fd5b6000612a86826124e6565b9150612a91836124e6565b9250827fffffffffffffffffffffffffffffffffffffffffffffffffffffffffffffffff03821115612ac657612ac5612a4c565b5b828201905092915050565b7f4e6f7420656e6f75676820746f6b656e73206c65667400000000000000000000600082015250565b6000612b07601683612436565b9150612b1282612ad1565b602082019050919050565b60006020820190508181036000830152612b3681612afa565b9050919050565b6000612b4882612714565b9150612b5383612714565b9250827f800000000000000000000000000000000000000000000000000000000000000001821260008412151615612b8e57612b8d612a4c565b5b827f7fffffffffffffffffffffffffffffffffffffffffffffffffffffffffffffff018213600084121615612bc657612bc5612a4c565b5b828203905092915050565b7f457863656564656420746865206c696d69740000000000000000000000000000600082015250565b6000612c07601283612436565b9150612c1282612bd1565b602082019050919050565b60006020820190508181036000830152612c3681612bfa565b9050919050565b6000612c48826124e6565b9150612c53836124e6565b9250817fffffffffffffffffffffffffffffffffffffffffffffffffffffffffffffffff0483118215151615612c8c57612c8b612a4c565b5b828202905092915050565b7f4e6f7420656e6f7567682065746865722073656e740000000000000000000000600082015250565b6000612ccd601583612436565b9150612cd882612c97565b602082019050919050565b60006020820190508181036000830152612cfc81612cc0565b9050919050565b7f4552433732314d657461646174613a2055524920717565727920666f72206e6f60008201527f6e6578697374656e7420746f6b656e0000000000000000000000000000000000602082015250565b6000612d5f602f83612436565b9150612d6a82612d03565b604082019050919050565b60006020820190508181036000830152612d8e81612d52565b9050919050565b600081905092915050565b60008190508160005260206000209050919050565b60008154612dc2816129af565b612dcc8186612d95565b94506001821660008114612de75760018114612df857612e2b565b60ff19831686528186019350612e2b565b612e0185612da0565b60005b83811015612e2357815481890152600182019150602081019050612e04565b838801955050505b50505092915050565b6000612e3f8261242b565b612e498185612d95565b9350612e59818560208601612447565b80840191505092915050565b6000612e718285612db5565b9150612e7d8284612e34565b91508190509392505050565b7f4f776e61626c653a206e6577206f776e657220697320746865207a65726f206160008201527f6464726573730000000000000000000000000000000000000000000000000000602082015250565b6000612ee5602683612436565b9150612ef082612e89565b604082019050919050565b60006020820190508181036000830152612f1481612ed8565b9050919050565b600081519050919050565b600082825260208201905092915050565b6000612f4282612f1b565b612f4c8185612f26565b9350612f5c818560208601612447565b612f658161247a565b840191505092915050565b6000608082019050612f85600083018761257b565b612f92602083018661257b565b612f9f6040830185612611565b8181036060830152612fb18184612f37565b905095945050505050565b600081519050612fcb8161239c565b92915050565b600060208284031215612fe757612fe6612366565b5b6000612ff584828501612fbc565b91505092915050565b6000613009826124e6565b91507fffffffffffffffffffffffffffffffffffffffffffffffffffffffffffffffff820361303b5761303a612a4c565b5b600182019050919050565b7f4e487b7100000000000000000000000000000000000000000000000000000000600052601260045260246000fd5b6000613080826124e6565b915061308b836124e6565b92508261309b5761309a613046565b5b828204905092915050565b60006130b1826124e6565b91506130bc836124e6565b9250828210156130cf576130ce612a4c565b5b828203905092915050565b60006130e5826124e6565b91506130f0836124e6565b925082613100576130ff613046565b5b828206905092915050565b7f4e487b7100000000000000000000000000000000000000000000000000000000600052603260045260246000fdfea2646970667358221220dd5684788a20e45ffe664cc7c1ba5589fc164e09b0e26e0c95037311e4c11a2164736f6c634300080e0033697066733a2f2f516d5874384d6f78687658665455626d753463464b655a667364624a6844707335385334385338776767744d70592f697066733a2f2f516d6462674478693774744a4b4a6945324e77584e7277356b396858535864645a786e474e59674154374e4d46472f",
  "immutableReferences": {},
  "source": "// SPDX-License-Identifier: MIT\r\npragma solidity ^0.8.4;\r\n\r\nimport \"erc721a/contracts/ERC721A.sol\";\r\nimport \"openzeppelin-solidity/contracts/access/Ownable.sol\";\r\nimport \"openzeppelin-solidity/contracts/utils/Strings.sol\";\r\n\r\ncontract test is ERC721A, Ownable  {\r\n    // --- vars\r\n    // minting vars\r\n    uint256 MAX_MINTS = 1; // wallet can only mint once \r\n    uint256 MAX_SUPPLY = 5000; // max of 5000 tokens to mint\r\n    uint256 triggerNumber = 1000; // after this many tokens minter, max_mints and price of mint will change\r\n    bool triggerHasFired = false;\r\n    uint256 public mintRate = 0 ether; // free mint for now\r\n\r\n    // uri vars\r\n    string private baseURI = \"ipfs://QmdbgDxi7ttJKJiE2NwXNrw5k9hXSXddZxnGNYgAT7NMFG/\";\r\n    string private hiddenURI = \"ipfs://QmXt8MoxhvXfTUbmu4cFKeZfsdbJhDps58S48S8wggtMpY/\";\r\n    bool isRevealed = false;\r\n\r\n    //--- Addresses\r\n    address treasurer;\r\n\r\n    constructor() ERC721A(\"Ninjack5\", \"N5\") {}\r\n\r\n    // --- modifiers\r\n    modifier onlyTreasurerAndOwner(){\r\n        require(msg.sender == treasurer || msg.sender == owner());\r\n        _; // run function\r\n    }\r\n\r\n    // --- nft functions\r\n    // for public to call for mints\r\n    function mint(uint256 quantity) external payable {\r\n        // _safeMint's second argument now takes in a quantity, not a tokenId.\r\n        require(quantity + _numberMinted(msg.sender) <= MAX_MINTS, \"Exceeded the limit\");\r\n        require(totalSupply() + quantity <= MAX_SUPPLY, \"Not enough tokens left\");\r\n        require(msg.value >= (mintRate * quantity), \"Not enough ether sent\");\r\n        _safeMint(msg.sender, quantity);\r\n        ChangePriceAndMaxMints();\r\n    }\r\n    // return base URI\r\n    function _baseURI() internal view override returns (string memory) {\r\n        return baseURI;\r\n    }\r\n    // handle which uri to associate with the token\r\n    function tokenURI(uint256 tokenId) public view virtual override returns (string memory) {\r\n        // check if token exists\r\n        require(_exists(tokenId), \"ERC721Metadata: URI query for nonexistent token\");\r\n\r\n        // return correct uri\r\n        if(isRevealed){\r\n            string memory stringID = Strings.toString(tokenId);\r\n            string memory fullURI = string(abi.encodePacked(baseURI, stringID));\r\n            return fullURI;\r\n        } else{\r\n            return hiddenURI;\r\n        }\r\n    }\r\n\r\n\r\n    // --- owner controls\r\n    // for owner to bring in tha bank!!\r\n    function withdraw() external payable onlyTreasurerAndOwner {\r\n        payable(msg.sender).transfer(address(this).balance);\r\n    }\r\n    // reveal nfts or not\r\n    function reveal(bool toReveal) public onlyOwner{\r\n        isRevealed = toReveal;\r\n    }\r\n    // for dev to mint for free\r\n    function devMint(uint num) public onlyOwner {\r\n        require(totalSupply() + num <= MAX_SUPPLY, \"Not enough tokens left\");\r\n        _safeMint(msg.sender, num);\r\n        ChangePriceAndMaxMints();\r\n    }\r\n    // set price\r\n    function setPrice(uint256 newPrice) external onlyOwner {\r\n        mintRate = newPrice;\r\n    }\r\n    // set maxMints\r\n    function setMaxMints(uint256 newMax) external onlyOwner {\r\n        MAX_MINTS = newMax;\r\n    }\r\n    //set treasurer\r\n    function setTreasurer(address newTreasurer) external onlyOwner{\r\n        treasurer = newTreasurer;\r\n    }\r\n\r\n\r\n    // --- on 1000 mints\r\n    function ChangePriceAndMaxMints() internal {\r\n        if(totalSupply() >= triggerNumber && !triggerHasFired){\r\n            // save trigger fire\r\n            triggerHasFired = true;\r\n            // change mint price\r\n            mintRate = 0.005 ether;\r\n            // change max mint\r\n            MAX_MINTS = 10;\r\n        }\r\n    }\r\n\r\n    // --- for front end\r\n    function getMaxMints() public view returns (uint256){\r\n        return MAX_MINTS;\r\n    }\r\n    function getPrice() public view returns (uint256){\r\n        return mintRate;\r\n    }\r\n    function mintsLeft() public view returns (int) {\r\n        int max = int(MAX_MINTS);\r\n        int owned = int(balanceOf(msg.sender));\r\n        return max-owned;\r\n    }\r\n    function supplyHasFinished() public view returns (bool){\r\n        if(totalSupply() >= MAX_SUPPLY){\r\n            return true;\r\n        }\r\n        else{\r\n            return false;\r\n        }\r\n    }\r\n\r\n\r\n    // --- testing purposes\r\n    function setTriggerNumber(uint256 newNum) public onlyOwner{\r\n        triggerNumber = newNum;\r\n    }\r\n}",
  "sourcePath": "/mnt/c/Users/Admin/Desktop/DevNinjacksNFT/blockchain/contracts/test.sol",
  "compiler": {
    "name": "solc",
    "version": "0.8.14+commit.80d49f37.Emscripten.clang"
  },
  "schemaVersion": "3.4.7",
  "updatedAt": "2022-06-15T01:04:55.889Z",
  "networkType": "ethereum",
  "devdoc": {
    "kind": "dev",
    "methods": {
      "approve(address,uint256)": {
        "details": "See {IERC721-approve}."
      },
      "balanceOf(address)": {
        "details": "See {IERC721-balanceOf}."
      },
      "getApproved(uint256)": {
        "details": "See {IERC721-getApproved}."
      },
      "isApprovedForAll(address,address)": {
        "details": "See {IERC721-isApprovedForAll}."
      },
      "name()": {
        "details": "See {IERC721Metadata-name}."
      },
      "owner()": {
        "details": "Returns the address of the current owner."
      },
      "ownerOf(uint256)": {
        "details": "See {IERC721-ownerOf}."
      },
      "renounceOwnership()": {
        "details": "Leaves the contract without owner. It will not be possible to call `onlyOwner` functions anymore. Can only be called by the current owner. NOTE: Renouncing ownership will leave the contract without an owner, thereby removing any functionality that is only available to the owner."
      },
      "safeTransferFrom(address,address,uint256)": {
        "details": "See {IERC721-safeTransferFrom}."
      },
      "safeTransferFrom(address,address,uint256,bytes)": {
        "details": "See {IERC721-safeTransferFrom}."
      },
      "setApprovalForAll(address,bool)": {
        "details": "See {IERC721-setApprovalForAll}."
      },
      "supportsInterface(bytes4)": {
        "details": "See {IERC165-supportsInterface}."
      },
      "symbol()": {
        "details": "See {IERC721Metadata-symbol}."
      },
      "tokenURI(uint256)": {
        "details": "See {IERC721Metadata-tokenURI}."
      },
      "totalSupply()": {
        "details": "Returns the total number of tokens in existence. Burned tokens will reduce the count.  To get the total number of tokens minted, please see `_totalMinted`."
      },
      "transferFrom(address,address,uint256)": {
        "details": "See {IERC721-transferFrom}."
      },
      "transferOwnership(address)": {
        "details": "Transfers ownership of the contract to a new account (`newOwner`). Can only be called by the current owner."
      }
    },
    "version": 1
  },
  "userdoc": {
    "errors": {
      "ApprovalCallerNotOwnerNorApproved()": [
        {
          "notice": "The caller must own the token or be an approved operator."
        }
      ],
      "ApprovalQueryForNonexistentToken()": [
        {
          "notice": "The token does not exist."
        }
      ],
      "ApprovalToCurrentOwner()": [
        {
          "notice": "The caller cannot approve to the current owner."
        }
      ],
      "ApproveToCaller()": [
        {
          "notice": "The caller cannot approve to their own address."
        }
      ],
      "BalanceQueryForZeroAddress()": [
        {
          "notice": "Cannot query the balance for the zero address."
        }
      ],
      "MintToZeroAddress()": [
        {
          "notice": "Cannot mint to the zero address."
        }
      ],
      "MintZeroQuantity()": [
        {
          "notice": "The quantity of tokens minted must be more than zero."
        }
      ],
      "OwnerQueryForNonexistentToken()": [
        {
          "notice": "The token does not exist."
        }
      ],
      "TransferCallerNotOwnerNorApproved()": [
        {
          "notice": "The caller must own the token or be an approved operator."
        }
      ],
      "TransferFromIncorrectOwner()": [
        {
          "notice": "The token must be owned by `from`."
        }
      ],
      "TransferToNonERC721ReceiverImplementer()": [
        {
          "notice": "Cannot safely transfer to a contract that does not implement the ERC721Receiver interface."
        }
      ],
      "TransferToZeroAddress()": [
        {
          "notice": "Cannot transfer to the zero address."
        }
      ],
      "URIQueryForNonexistentToken()": [
        {
          "notice": "The token does not exist."
        }
      ]
    },
    "kind": "user",
    "methods": {},
    "version": 1
  }
}